:020000040800F2
:1000000078F60020450100086F1B0008FD0D000870
:10001000691B0008CD030008DB3F0008000000005A
:100020000000000000000000000000000332000893
:100030001508000800000000AD1C0008AD360008DF
:10004000E13F0008591C000811370008592000083A
:10005000B90B00085D1F000809090008A90900087C
:10006000F5090008410A00088D0A00086904000823
:10007000BD0400081105000865050008B905000861
:100080000D0600086106000879020008893E000894
:10009000DD3E0008D10300081D040008D90A00084D
:1000A0005D37000845380008F5370008A937000813
:1000B00091380008D938000821390008510E00088D
:1000C000010E0008ED0E00089D0E0008A13000088A
:1000D000ED300008313C0008813C0008D13C0008AC
:1000E00055090008CD1F0008353E00084D3A0008AC
:1000F000413B0008ED3A00089D3A0008C50200089F
:10010000050C00085530000869390008393100082D
:10011000913B0008E13B0008B5390008013A0008AE
:10012000B50600080D07000865070008BD070008B0
:10013000DFF80CD000F07EF800480047E5440008E6
:1001400078F600200648804706480047FEE7FEE7AD
:10015000FEE7FEE7FEE7FEE7FEE7FEE7FEE7FEE777
:10016000B13600083101000840EA01039B0703D0C3
:1001700009E008C9121F08C0042AFAD203E011F8E6
:10018000013B00F8013B521EF9D27047D2B201E0A8
:1001900000F8012B491EFBD270470022F6E710B58C
:1001A00013460A4604461946FFF7F0FF204610BDE5
:1001B0002DE9F05F0546002092469B46884606469C
:1001C000814640241BE0284641464746224600F02F
:1001D00020F853465A46C01A914110D3114618468A
:1001E000224600F039F82D1A67EB01084F462246E7
:1001F0000120002100F030F817EB00094E41201ECD
:10020000A4F10104DFDC484631462A464346BDE8F6
:10021000F09F202A04DB203A21FA02F000217047E7
:1002200021FA02F3D040C2F120029140084319465E
:1002300070470000064C074D06E0E06840F00103FF
:1002400094E8070098471034AC42F6D3FFF774FFE8
:100250002C4600084C460008202A04DB203A00FA0D
:1002600002F1002070479140C2F1200320FA03F30D
:10027000194390407047000010B50648806C18B1D3
:100280000449886C804703E003A108A003F0CCFE7A
:1002900010BD000064F10020414443315F325F49EA
:1002A000525148616E646C657200000049727120A1
:1002B000257320436F6E66696720457272210D0AAF
:1002C0000000000010B50748D0F8BC0020B1054977
:1002D000D1F8BC00804703E003A107A003F0A4FE0F
:1002E00010BD000064F10020414443335F49525186
:1002F00048616E646C6572004972712025732043F9
:100300006F6E66696720457272210D0A0000000059
:1003100010B5044624B1012C03D0022C08D104E00E
:1003200000BF204600F030F803E000F004F800E0E1
:1003300000BF00BF10BD10B5002400BF07E00020C3
:1003400000F022F8C82000F091FA601CC4B2022C20
:10035000F5DB10BD08B50A48806940F0080008497F
:10036000886108208DF8000010208DF8020003201D
:100370008DF801006946034800F0F5FC08BD000057
:1003800000100240000C014070B5044600250CB975
:10039000642501E04FF4FA7500BF012005490860AB
:1003A00000BF284600F062FA00BF00200149086043
:1003B00000BF70BDA081214210B500F08CFA01F0A1
:1003C000FFFDFFF7C7FF01F0F9FB10BD00BFFEE71F
:1003D00010B50648406D18B10449486D804703E0E8
:1003E00003A108A003F020FE10BD000064F100206E
:1003F00043414E315F5258315F49525148616E64FA
:100400006C65720049727120257320436F6E6669B6
:100410006720457272210D0A0000000010B50648E1
:10042000806D18B10449886D804703E003A108A0DE
:1004300003F0FAFD10BD000064F1002043414E318D
:100440005F5343455F49525148616E646C65720069
:1004500049727120257320436F6E6669672045726B
:1004600072210D0A0000000010B50648C06A18B1DC
:100470000449C86A804703E003A10AA003F0D4FD41
:1004800010BD000064F10020444D41315F436861BC
:100490006E6E656C315F49525148616E646C657275
:1004A0000000000049727120257320436F6E666959
:1004B0006720457272210D0A0000000010B5064841
:1004C000006B18B10449086B804703E003A10AA040
:1004D00003F0AAFD10BD000064F10020444D41313D
:1004E0005F4368616E6E656C325F49525148616E60
:1004F000646C65720000000049727120257320430E
:100500006F6E66696720457272210D0A0000000057
:1005100010B50648406B18B10449486B804703E0AA
:1005200003A10AA003F080FD10BD000064F10020CB
:10053000444D41315F4368616E6E656C335F495273
:100540005148616E646C6572000000004972712050
:10055000257320436F6E66696720457272210D0A0C
:100560000000000010B50648806B18B10449886B84
:10057000804703E003A10AA003F056FD10BD000070
:1005800064F10020444D41315F4368616E6E656CDB
:10059000345F49525148616E646C6572000000001E
:1005A00049727120257320436F6E6669672045721A
:1005B00072210D0A0000000010B50648C06B18B18A
:1005C0000449C86B804703E003A10AA003F02CFD97
:1005D00010BD000064F10020444D41315F4368616B
:1005E0006E6E656C355F49525148616E646C657220
:1005F0000000000049727120257320436F6E666908
:100600006720457272210D0A0000000010B50648EF
:10061000006C18B10449086C804703E003A10AA0EC
:1006200003F002FD10BD000064F10020444D413193
:100630005F4368616E6E656C365F49525148616E0A
:10064000646C6572000000004972712025732043BC
:100650006F6E66696720457272210D0A0000000006
:1006600010B50648406C18B10449486C804703E057
:1006700003A10AA003F0D8FC10BD000064F1002023
:10068000444D41315F4368616E6E656C375F49521E
:100690005148616E646C65720000000049727120FF
:1006A000257320436F6E66696720457272210D0ABB
:1006B0000000000010B50748D0F8E00020B105495F
:1006C000D1F8E000804703E003A10AA003F0ACFCEE
:1006D00010BD000064F10020444D41325F43686169
:1006E0006E6E656C315F49525148616E646C657223
:1006F0000000000049727120257320436F6E666907
:100700006720457272210D0A0000000010B50748ED
:10071000D0F8E40020B10549D1F8E400804703E0B7
:1007200003A10AA003F080FC10BD000064F10020CA
:10073000444D41325F4368616E6E656C325F495271
:100740005148616E646C657200000000497271204E
:10075000257320436F6E66696720457272210D0A0A
:100760000000000010B50748D0F8E80020B10549A6
:10077000D1F8E800804703E003A10AA003F054FC8D
:1007800010BD000064F10020444D41325F436861B8
:100790006E6E656C335F49525148616E646C657270
:1007A0000000000049727120257320436F6E666956
:1007B0006720457272210D0A0000000010B507483D
:1007C000D0F8EC0020B10549D1F8EC00804703E0F7
:1007D00003A10AA003F028FC10BD000064F1002072
:1007E000444D41325F4368616E6E656C345F355FC6
:1007F00049525148616E646C657200004972712003
:10080000257320436F6E66696720457272210D0A59
:10081000000000007047000010B501214FF0C050EB
:1008200001F012FB012001F03BFA0F48006A40F092
:1008300001000D49086200BF0B48006A00F0020089
:100840000028F9D04FF4807001F0B2FB012001F0D4
:10085000A9FB01F035FC012001F022FC01F030FC85
:10086000002001F01DFA10BD0010024070B50446D2
:1008700000254FF6FF7000EA041401F0E3FB20446A
:1008800085B200BF01F0DEFB80B2A842FAD170BD94
:1008900000EBC001C9004FF0E02251610521116158
:1008A00000BF4FF0E021096901F480310029F8D040
:1008B0004FF0E021096921F001014FF0E0221161C0
:1008C000704710B5FFF7A8FF03F032FB01F0BAF84C
:1008D00001F02EF810BD10B5012000F059FB10BD3D
:1008E00070B504460D46164601225021104600F010
:1008F00023FD2146012000F0DFFE33462A46502129
:10090000012000F0C3FB70BD10B50648806918B126
:1009100004498869804703E003A108A003F084FB31
:1009200010BD000064F1002045585449305F495221
:100930005148616E646C657200000000497271205C
:10094000257320436F6E66696720457272210D0A18
:100950000000000010B50748D0F8A00020B10549FC
:10096000D1F8A000804703E003A109A003F05CFBDD
:1009700010BD000064F100204558544931355F3105
:10098000305F49525148616E646C6572000000002E
:1009900049727120257320436F6E66696720457226
:1009A00072210D0A0000000010B50648C06918B198
:1009B0000449C869804703E003A108A003F034FBA1
:1009C00010BD000064F1002045585449315F495280
:1009D0005148616E646C65720000000049727120BC
:1009E000257320436F6E66696720457272210D0A78
:1009F0000000000010B50648006A18B10449086AF2
:100A0000804703E003A108A003F00EFB10BD000027
:100A100064F1002045585449325F49525148616E93
:100A2000646C6572000000004972712025732043D8
:100A30006F6E66696720457272210D0A0000000022
:100A400010B50648406A18B10449486A804703E077
:100A500003A108A003F0E8FA10BD000064F1002033
:100A600045585449335F49525148616E646C657210
:100A70000000000049727120257320436F6E666983
:100A80006720457272210D0A0000000010B506486B
:100A9000806A18B10449886A804703E003A108A06E
:100AA00003F0C2FA10BD000064F10020455854491B
:100AB000345F49525148616E646C657200000000F9
:100AC00049727120257320436F6E666967204572F5
:100AD00072210D0A0000000010B50648C06D18B163
:100AE0000449C86D804703E003A108A003F09CFA05
:100AF00010BD000064F1002045585449395F355F4E
:100B000049525148616E646C6572000049727120EF
:100B1000257320436F6E66696720457272210D0A46
:100B200000000000002123498279002A3AD00A46B9
:100B3000126803689A430B461A600A1D126803681C
:100B40009A430B1D1A60027911440A6803681A431C
:100B50000A60184A0832126803689A43154B083332
:100B60001A601A1D126803689A43124B0C331A60FC
:100B70004279102A0ED11A1F126803681A430D4BCE
:100B800008331A601A1D126803681A43094B0C33A4
:100B90001A600DE00749427911440A6803681A4354
:100BA0000A6005E0027911440A6803689A430A6002
:100BB000704700000004014010B50648006918B1F4
:100BC00004490869804703E003A108A003F02CFA58
:100BD00010BD000064F10020464C4153485F49526B
:100BE0005148616E646C65720000000049727120AA
:100BF000257320436F6E66696720457272210D0A66
:100C00000000000010B50748D0F8C00020B1054929
:100C1000D1F8C000804703E003A107A003F004FA65
:100C200010BD000064F1002046534D435F4952510E
:100C300048616E646C6572004972712025732043AF
:100C40006F6E66696720457272210D0A0000000010
:100C50002DE9F04102460025002600200023002453
:100C6000002791F803C00CF00F0591F803C00CF0B9
:100C7000100CBCF1000F03D091F802C04CEA05053E
:100C800091F800C0BCF1000F31D0146800202BE0B7
:100C90004FF0010C0CFA00F3B1F800C00CEA0306A7
:100CA0009E4220D183004FF00F0C0CFA03F7BC4397
:100CB00005FA03FC4CEA040491F803C0BCF1280FC8
:100CC00006D14FF0010C0CFA00FCC2F814C00AE087
:100CD00091F803C0BCF1480F05D14FF0010C0CFA9C
:100CE00000FCC2F810C0401C0828D1D31460B1F831
:100CF00000C0BCF1FF0F34DD546800202EE000F18D
:100D0000080C4FF0010808FA0CF3B1F800C00CEA27
:100D100003069E4221D183004FF00F0C0CFA03F71B
:100D2000BC4305FA03FC4CEA040491F803C0BCF18F
:100D3000280F05D100F1080C08FA0CF8C2F814804D
:100D400091F803C0BCF1480F07D100F1080C4FF037
:100D5000010808FA0CF8C2F81080401C0828CED30D
:100D60005460BDE8F081F0B50246134608784C782F
:100D70008E7806F00F0644EA06054C783CBB8C786A
:100D8000182C10D100BF012702F10C0404F07044AC
:100D900004F1007402F10C06C6F3130604EB4614CA
:100DA00044F8207013E08C78082C10D100BF002785
:100DB00002F10C0404F0704404F1007402F10C061A
:100DC000C6F3130604EB461444F8207000BF07284E
:100DD00008DD131D0446C61700EB5676F610A0EB8F
:100DE000C606F0B28400A5401C6887000F26BE40EE
:100DF000B4431C601C682C431C60F0BD00BFFEE7C0
:100E000010B50748D0F8800020B10549D1F880001E
:100E1000804703E003A108A003F006F910BD00001D
:100E200064F10020493243315F45525F49525148D5
:100E3000616E646C657200004972712025732043F5
:100E40006F6E66696720457272210D0A000000000E
:100E500010B50648C06F18B10449C86F804703E059
:100E600003A108A003F0E0F810BD000064F1002029
:100E7000493243315F45565F49525148616E646C57
:100E80006572000049727120257320436F6E666998
:100E90006720457272210D0A0000000010B5074856
:100EA000D0F8880020B10549D1F88800804703E0D8
:100EB00003A108A003F0B8F810BD000064F1002001
:100EC000493243325F45525F49525148616E646C0A
:100ED0006572000049727120257320436F6E666948
:100EE0006720457272210D0A0000000010B5074806
:100EF000D0F8840020B10549D1F88400804703E090
:100F000003A108A003F090F810BD000064F10020D8
:100F1000493243325F45565F49525148616E646CB5
:100F20006572000049727120257320436F6E6669F7
:100F30006720457272210D0A0000000078B5044652
:100F40000D46012D01D1012000E00020064604EBF2
:100F500044000E4901EBC000007C8DF800000EB18A
:100F6000002000E003208DF801000EB1042000E015
:100F700010208DF8020004EB4401044A02EBC10189
:100F8000C8686946FFF7EFFE78BD0000B845000865
:100F900030B587B0044604EB4400394901EBC00585
:100FA000D5E901022968CDE905020491D5E90412C9
:100FB000E86801AB07C333480068009003990698BE
:100FC00008433149896908432F4988619DF8140015
:100FD0008DF8000003208DF8010010208DF802002C
:100FE00069460498FFF7BFFE00BF012204EB4400EE
:100FF000234901EBC000C0680C3000F0704000F1E4
:10100000007004EB44011E4B03EBC101C9680C31B5
:10101000C1F3130100EB411104EB440003EBC000EA
:10102000007C41F8202000BF9DF808008DF80000EA
:1010300069460198FFF797FE00BF012204EB4400C8
:101040000F4951F830000C3000F0704000F1007092
:1010500004EB44010A4B53F831100C31C1F3130176
:1010600000EB411004EB440103EBC101097940F8A6
:10107000212000BF0220FFF70BFC07B030BD0000AD
:10108000B845000814460008001002402DE9F04160
:101090000746884615461E4600240022414638462B
:1010A00000F04AF900BF06E029190122384600F095
:1010B0000FF8601C84B2701EA042F5DC29190022D2
:1010C000384600F005F8384600F0D2F9BDE8F08166
:1010D000F0B504460D461646002700202870012171
:1010E0002046FFF72BFF00BF69E028784006000E7E
:1010F000287000BF012204EB4400344951F830004D
:101100000C3000F0704000F1007004EB44012F4BF4
:1011100053F831100C31C1F3130100EB411004EB13
:10112000440103EBC101097940F8212000BF0220EE
:10113000FFF7AEFB04EB4400244901EBC000C0689C
:10114000083000F0704000F1007004EB44011F4AC9
:1011500002EBC101C9680831C1F3130100EB411171
:1011600004EB440002EBC000007C51F8200018B1F1
:10117000287840F00100287000BF002204EB4400F2
:10118000124951F830000C3000F0704000F100704E
:1011900004EB44010D4B53F831100C31C1F3130132
:1011A00000EB411004EB440103EBC101097940F865
:1011B000212000BF0220FFF76BFB781CC7B2082F6D
:1011C00093DB3146204600F003F8F0BDB845000837
:1011D00030B504460D4600212046FFF7AFFEFDB1B5
:1011E00000BF002204EB4400524901EBC000C0687C
:1011F0000C3000F0704000F1007004EB44014D4BE6
:1012000003EBC101C9680C31C1F3130100EB4111BB
:1012100004EB440003EBC000007C41F820201FE0F9
:1012200000BF012204EB4400424901EBC000C0684A
:101230000C3000F0704000F1007004EB44013D4BB5
:1012400003EBC101C9680C31C1F3130100EB41117B
:1012500004EB440003EBC000007C41F8202000BFF9
:101260000220FFF715FB00BF012204EB44003149C7
:1012700051F830000C3000F0704000F1007004EBC9
:1012800044012C4B53F831100C31C1F3130100EB26
:10129000411004EB440103EBC101097940F821201E
:1012A00000BF0220FFF7F4FA00BF002204EB440065
:1012B000204951F830000C3000F0704000F100700F
:1012C00004EB44011B4B53F831100C31C1F31301F3
:1012D00000EB411004EB440103EBC101097940F834
:1012E000212000BF0220FFF7D3FA00BF002204EB49
:1012F0004400104901EBC000C0680C3000F07040A1
:1013000000F1007004EB44010A4B03EBC101C96812
:101310000C31C1F3130100EB411104EB440003EB6A
:10132000C000007C41F8202000BF0220FFF7B0FA87
:1013300030BD0000B84500082DE9F04104460D46D7
:10134000164600270EB9012700E0002700BF012242
:1013500004EB4400454951F830000C3000F0704077
:1013600000F1007004EB4401404B53F831100C3194
:10137000C1F3130100EB411004EB440103EBC10185
:10138000097940F8212000BF0220FFF781FA00BF51
:10139000012204EB4400354901EBC000C0680C3069
:1013A00000F0704000F1007004EB44012F4B03EBA0
:1013B000C101C9680C31C1F3130100EB411104EB09
:1013C000440003EBC000007C41F8202000BF022055
:1013D000FFF75EFA00BF002204EB4400234901EB53
:1013E000C000C0680C3000F0704000F1007004EBE9
:1013F00044011E4B03EBC101C9680C31C1F3130159
:1014000000EB411104EB440003EBC000007C41F809
:10141000202000BF0220FFF73BFA00BF002204EBB0
:101420004400124951F830000C3000F0704000F1D7
:10143000007004EB44010D4B53F831100C31C1F333
:10144000130100EB411004EB440103EBC1010979E6
:1014500040F8212000BF0220FFF71AFA47EA4500B2
:10146000C1B2204600F028F9BDE8F081B845000877
:1014700010B5034600BF002203EB4300304901EBE7
:10148000C000C0680C3000F0704000F1007003EB49
:1014900043012B4C04EBC101C9680C31C1F31301AA
:1014A00000EB411103EB430004EBC000007C41F86A
:1014B000202000BF0220FFF7EBF900BF012203EB61
:1014C0004300214651F830000C3000F0704000F12C
:1014D000007003EB430154F831100C31C1F31301D8
:1014E00000EB411003EB430104EBC101097940F823
:1014F000212000BF0220FFF7CBF900BF012203EB40
:101500004300214601EBC000C0680C3000F0704081
:1015100000F1007003EB430104EBC101C9680C3119
:10152000C1F3130100EB411103EB430004EBC000D6
:10153000007C41F8202000BF0220FFF7A9F910BD70
:10154000B845000870B504460026002500BF0022FB
:1015500004EB44004D4901EBC000C0680C3000F0C2
:10156000704000F1007004EB4401484B03EBC101F3
:10157000C9680C31C1F3130100EB411104EB4400C5
:1015800003EBC000007C41F8202000BF0220FFF7E1
:101590007FF901212046FFF7D1FC00BF012204EBB7
:1015A00044003A4951F830000C3000F0704000F12E
:1015B000007004EB4401354B53F831100C31C1F38A
:1015C000130100EB411004EB440103EBC101097965
:1015D00040F8212000BF08E0701CC6B20220FFF7CF
:1015E00057F9FE2E01DD01251FE004EB44002749D9
:1015F00001EBC000C068083000F0704000F10070DE
:1016000004EB4401214A02EBC101C9680831C1F36E
:10161000130100EB411104EB440002EBC000007C1D
:1016200051F820000028D7D100BF00BF002204EBF2
:101630004400164951F830000C3000F0704000F1C1
:10164000007004EB4401114B53F831100C31C1F31D
:10165000130100EB411004EB440103EBC1010979D4
:1016600040F8212000BF0220FFF712F90021204698
:10167000FFF764FC3DB100BF0023012204A107A0D5
:1016800002F0D2FC00BFE8B270BD0000B84500080F
:101690004932635761697441636B000046756E633C
:1016A0003A25732C4572723A307825782C5374653C
:1016B000703A25642C0D0A002DE9F04104460D46D0
:1016C00000268027B04600BFADE005EA0700F8B16C
:1016D00000BF012204EB44005D4901EBC000C0687B
:1016E0000C3000F0704000F1007004EB4401584BE6
:1016F00003EBC101C9680C31C1F3130100EB4111C7
:1017000004EB440003EBC000007C41F820201FE004
:1017100000BF002204EB44004D4901EBC000C0684B
:101720000C3000F0704000F1007004EB4401484BB5
:1017300003EBC101C9680C31C1F3130100EB411186
:1017400004EB440003EBC000007C41F8202000BF04
:101750007F100220FFF79CF800BF012204EB440039
:101760003B4951F830000C3000F0704101F100713C
:1017700004EB4400364B53F830000C30C0F3130038
:1017800001EB401004EB440103EBC101097940F87F
:10179000212000BF0220FFF77BF800BF002204EBEE
:1017A00044002B4951F830000C3000F0704000F13B
:1017B000007004EB4401264B53F831100C31C1F397
:1017C000130100EB411004EB440103EBC101097963
:1017D00040F8212000BF0220FFF75AF800BF002286
:1017E00004EB44001A4901EBC000C0680C3000F063
:1017F000704101F1007104EB4400154B03EBC00094
:10180000C0680C30C0F3130001EB401104EB44003E
:1018100003EBC000007C41F8202000BF0220FFF74E
:1018200037F8701CC6B2082EFFF64FAF2046FFF700
:1018300089FE8046B8F1000F07D000BF00230122C7
:1018400004A108A002F0F0FB00BF4046BDE8F08113
:10185000B845000849326357726974654279746506
:101860000000000046756E633A25732C4572723A8B
:10187000307825782C537465703A25642C0D0A0055
:101880002DE9F0470B4614464FF0000C05211D468C
:1018900026460A46C2F10709B9F1040F02D94FF0F2
:1018A000040901E0C2F10709C84602F10409B9F1CF
:1018B000070F02D24FF0000901E0A2F103094F46E1
:1018C0004FF0010909FA08F9A9F1010909EA050926
:1018D00009FA07F94FF0010A0AFA07FAAAF1010A10
:1018E0000AEA060A49EA0A09CC4601466246002984
:1018F00007DA15072F0E0C4D01F00F06361FAF55F6
:1019000003E015072E0E094D6E5400BF00BF00F016
:101910001F02012191404209920002F1E022C2F827
:10192000001100BFBDE8F08718ED00E000E400E022
:1019300030B5002405200246124B19684FF6FF030C
:101940001940114B0B4343EA02210E4B196000BFB3
:1019500000BF14E004EB44030C4D05EB83039A68CD
:1019600004EB440305EB8303596804EB440305EBE4
:10197000830393F90000FFF783FF601CC4B2002CBF
:10198000E8D030BD0CED00E00000FA050846000884
:10199000014A42F82010704764F10020F0B5034678
:1019A0000E4800EBC304CD1701EBD5656D11266819
:1019B00056F825500A46CE1701EBD6667611A1EBF4
:1019C00046170126BE40B5430846CE1701EBD66642
:1019D0007611276847F82650F0BD0000E84500085A
:1019E0002DE9F04705460E46174698464FF0000988
:1019F000002400BF0FE055F82400401C00B908E0A7
:101A00004FF0010955F8240000F00CF888F80000A8
:101A100003E0601CC4B2B442EDDB00BF3C7048463A
:101A2000BDE8F08702460020012100BF06E002EA7F
:101A3000010303B904E04900431CD8B22028F6DBB7
:101A400000BF704710B54FF492710248FEF7A5FB36
:101A500010BD0000400000202DE9FC4106460C4668
:101A60000027B846314800EBC605002001900090E1
:101A700029796B4601AA2868FFF7B2FF10B94FF029
:101A8000010849E09DF80410286850F821009DF8ED
:101A900000200121914008439DF80420296841F865
:101AA00022009DF804009DF8001001EB40102080FA
:101AB00036B1012E0ED0022E16D0032E27D11DE0F6
:101AC00020881B4901EB80274FF480613846FEF7E0
:101AD00064FB1DE02188174800EB41274FF400719B
:101AE0003846FEF75AFB13E02188134800EB012724
:101AF0004FF480713846FEF750FB09E021880F480B
:101B000000EB811740213846FEF747FB00E000BF9D
:101B100000BF3846BDE8FC8100BF4346002208A153
:101B20000AA002F081FA00BF0020F3E7E8450008B0
:101B300064010020642900206479002064C9002029
:101B40004D656D4D616C6C6F6300000046756E6392
:101B50003A25732C4572723A307825782C53746587
:101B6000703A25642C0D0A0000BFFEE770477047ED
:101B700008B51048806940F480700E4988610620DD
:101B80008DF8000010208DF8020001208DF8010072
:101B900069460948FFF7E7F808208DF8000018208B
:101BA0008DF8020000208DF8010069460248FFF719
:101BB000DAF808BD001002400020014010B500F026
:101BC00021F8FFF7D5FF00F003F800F01AF810BD78
:101BD0001CB54FF48070009001208DF806000020A5
:101BE0008DF804000C208DF805006846FEF79AFF7A
:101BF00002491720FFF7CCFE1CBD0000011C0008A5
:101C00007047704700B589B00020ADF804004FF46C
:101C10008270ADF806000020ADF80800ADF80A00AB
:101C2000ADF80C004FF40070ADF80E001020ADF8C8
:101C300010000020ADF812000120ADF814008DF85E
:101C4000180001A807900348089006A801F066FC58
:101C500009B000BDB11C000810B50648406818B1B5
:101C600004494868804703E003A107A002F0DCF9BB
:101C700010BD000064F100205056445F49525148A5
:101C8000616E646C65720000497271202573204397
:101C90006F6E66696720457272210D0A00000000B0
:101CA000014908627047000000000E4270470000C2
:101CB0002DE9FC5F0446884691461F46DDF830A0BA
:101CC00000250026AB4600200190009000BF00BF19
:101CD0000022C4EB04104F4901EB8000806A0C30F5
:101CE00000F0704000F10070C4EB0411494B03EBAD
:101CF0008101896A0C31C1F3130100EB4111C4EB7E
:101D0000041003EB800090F82C0041F8202000BF65
:101D100000BF414951F82400012101F033FA2A465D
:101D20006B1C9DB2B95C3C4A52F8240001AA01F038
:101D300035FC06460EB100BF61E0012516E0BAF1A0
:101D4000000F01D1387800E0785D0090691E01EB4A
:101D50000802314951F82400009901F01FFC0646A1
:101D600016B14FF0010B4AE0681C85B24D45E6DB29
:101D7000A9F1010101EB0802274951F824000021D3
:101D800001F00CFC064616B14FF0020B37E000BF25
:101D9000214951F82400802101F000FA0128F7D0F0
:101DA0001D4951F82400002101F0ECF91420FEF740
:101DB0006FFD00BF00BF0122C4EB0410154901EB09
:101DC0008000806A0C3000F0704000F10070C4EBBD
:101DD0000411104B03EB8101896A0C31C1F313012B
:101DE00000EB4111C4EB041003EB800090F82C00D1
:101DF00041F8202000BF00BF0020BDE8FC9F00BFCD
:101E00005B46324605A109A002F00EF900BF30463C
:101E1000F3E70000F8440008AC45000852433532AF
:101E200032537069526561640000000046756E634C
:101E30003A25732C4572723A307825782C537465A4
:101E4000703A25642C0D0A0029B1064AD269024372
:101E5000044BDA6104E0034AD2698243014BDA6140
:101E6000704700000010024029B1064A92690243FF
:101E7000044B9A6104E0034A92698243014B9A61E0
:101E8000704700000010024030B5002100220024FD
:101E900000232D4D6D6805F00C0121B1042905D0FA
:101EA000082923D105E0294D056022E0274D056072
:101EB0001FE0254D6D6805F47012234D6D6805F423
:101EC0008034022505EB92421CB9214D5543056033
:101ED0000BE01D4D6D6805F400351DB11C4D5543DB
:101EE000056002E0194D5543056002E0174D05609D
:101EF00000BF00BF144D6D6805F0F0010909154DD4
:101F00006B5C0568DD4045600F4D6D6805F4E06170
:101F1000090A104D6B5C4568DD4085600A4D6D68AF
:101F200005F46051C90A0B4D6B5C4568DD40C56026
:101F3000054D6D6805F44041890B074D6B5CC56824
:101F4000B5FBF3F5056130BD0010024000127A00C8
:101F500000093D00140000202400002010B50648B0
:101F6000406918B104494869804703E003A107A00C
:101F700002F05AF810BD000064F100205243435FA4
:101F800049525148616E646C65720000497271205B
:101F9000257320436F6E66696720457272210D0AB2
:101FA0000000000001490860704700003C04424204
:101FB0000249096A0143014A116270470010024058
:101FC00010B500F041F900F027FD10BD10B507482D
:101FD000D0F8A40020B10549D1F8A400804703E05F
:101FE00003A108A002F020F810BD000064F1002059
:101FF000525443416C61726D5F49525148616E6445
:102000006C65720049727120257320436F6E66699A
:102010006720457272210D0A000000000348008805
:1020200040F010000149088070470000042800407B
:10203000034800884FF6EF71084001490880704757
:1020400004280040002103480188001F008841EA5D
:10205000004070471C28004010B50648C06818B101
:102060000449C868804703E003A107A001F0DCFF32
:1020700010BD000064F100205254435F49525148A2
:10208000616E646C65720000497271202573204393
:102090006F6E66696720457272210D0A00000000AC
:1020A00000B50246FFF7BAFFC2F3034003490880B8
:1020B000091D0A80FFF7BCFF00BD00000828004092
:1020C00000BF0348008800F020000028F9D07047C6
:1020D0000428004070B504460D46002629462046D7
:1020E00000F028FB032000F0C5F9042000F084FA7A
:1020F00020B100BF05A001F097FF01E0012600BF5D
:10210000002000F0B7F9304670BD00005335302094
:1021100043616C632043726320457272210D0A0093
:1021200002460021002000BF0BE0084B13F81130DD
:10213000934204D1054B03EB4103587803E04B1C59
:10214000D9B20A29F1D300BF704700001746000832
:1021500070B504460025062000F00EF9054605EA94
:10216000040008B1012070BD0020FCE710B500BFDD
:102170000021042000F028FB0021052000F024FBB2
:1021800000BF0021082000F01FFB80210E2000F07E
:102190001BFB2121112000F017FB10BD70B500249E
:1021A000002500F059F860B10E2000F0E5F8054672
:1021B00005F0200008B1FF2403E005F01F0404B976
:1021C0002024204670BD10B500240A2000F0D4F869
:1021D00000F07F04204610BD2DE9F0410446FFF7D2
:1021E000DDFF0546002645B90027FFF7ECFF07464F
:1021F000F806000E207000BF09E0FF2D03D120205B
:102200002070012603E0681EC5B225700126304605
:10221000BDE8F08108B50A48806940F0040008492B
:10222000886104208DF8000010208DF80200012044
:102230008DF8010069460348FEF795FD08BD0000D2
:10224000001002400008014010B500F05DF9FFF7F2
:10225000E1FF00F0A6F810BD10B50820FFF778FFE9
:1022600008B1012010BD0020FCE72DE9FE43054622
:102270000E461746984600240020009001900290D8
:1022800081462146641C0DF801502146641C0DF85E
:1022900001600DEB040039680160B9888180A41DDC
:1022A0000DEB0400D8F800100160241D0C216846D5
:1022B00000F040FA0E2000F0DDF881464846BDE807
:1022C000FE8310B500F0A6F8012000F00AF8002007
:1022D00000F007F80F2000F0CDF8002000F077F8AC
:1022E00010BD70B50446012C01D1102000E0002083
:1022F00040F007060025304600F0BCF844B900BFA6
:10230000012000F039F8054605F01005002DF7D141
:1023100070BD00002DE9FC4105460C46922001905D
:1023200000260027FFF74FFF0646A64200DA10E01E
:10233000002E07DD0127002001AB22462946009030
:1023400000F0D4FF00BF80210A2000F03DFA00BF5A
:1023500000BF17B902A001F067FE3846BDE8FC8156
:102360005263353232526561644649464F204572A8
:1023700072210D0A000000003EB5044600200290C4
:102380000190802040EA4400C0B20290012002ABDC
:10239000024601A90090002000F0A8FF9DF804006B
:1023A0003EBD10B5FFF78DFF00BF00BFFFF7DEFE9B
:1023B00000F059F800F015F900F003F800F0FBF810
:1023C00010BD10B57021262000F0FEF910BD2DE9DA
:1023D000F0410446012C00D100E000200746002512
:1023E00000260FB1202000E0002040F00706304614
:1023F00000F040F80FB1002000E083200546294698
:10240000142000F0E1F94FF47A70FEF741FABDE8CC
:10241000F081000010B500BF00200749086000BF30
:102420000120FEF723FA00BF01200349086000BF26
:10243000FEF71CFA10BD00009001214270B5044661
:102440000D4600260CB1882600E0082631461320F0
:1024500000F0BAF90DB1002600E0102631461D202B
:1024600000F0B2F970BD10B510211D2000F0ACF9DC
:1024700010BD000070B50446002500BF00210420F7
:1024800000F0A2F90021052000F09EF900BF002114
:10249000012000F099F90E2C03D10021082000F052
:1024A00093F92146012000F08FF904F00F00FFF7A7
:1024B00037FE40B1022000F09FF808B9012000E08B
:1024C000002005460BE00E2C08D1052000F094F802
:1024D00008B9012000E00020054600E001251DB9F3
:1024E000214602A001F0A0FD284670BD526335329E
:1024F000322053656E6420436D64204572726F72A2
:102500003A25780D0A00000000B589B00020ADF82A
:1025100004004FF48270ADF806000020ADF808000A
:10252000ADF80A00ADF80C004FF40070ADF80E00E5
:102530001020ADF810000020ADF812000120ADF819
:10254000140000208DF8180001A807900348089097
:1025500006A800F0E3FF09B000BD0000B11C0008B0
:1025600070B505460E4600240C20FFF783FF06F0E9
:10257000070040EA0510C4B20D20FFF7FDFE084930
:10258000087008460078A04203D021460D2000F0D4
:102590001BF944F080010D2000F016F970BD000019
:1025A0002F00002010B50020FFF764FF00210D2050
:1025B00000F00AF910BD10B500212A2000F004F93E
:1025C00064212B2000F000F910BD70B504460025F1
:1025D0000CB1802500E000252946122000F0F4F817
:1025E00070BD10B54021152000F0EEF81021162026
:1025F00000F0EAF810BD00002DE9F0470446FF277F
:102600006E2500264FF000094FF0000A4FF0000839
:10261000042C02DA4FF0040906E0052C02D14FF039
:10262000080901E04FF00709062C16D2DFE804F094
:102630000306090C0F124FF0400812E04FF020087B
:102640000FE04FF010080CE04FF0010809E04FF0E8
:10265000200806E04FF0080803E04FF0000AFF27CB
:1026600023E000BF00BF0420FFF786FE06460620D9
:10267000FFF782FE074606F0020010B14FF0010A94
:1026800013E04846FFF778FE064606EA080000B168
:1026900016E06420FEF7FCF82800A5F10101CDB298
:1026A000E1D1FE274FF0020A00BF00BF53463A4671
:1026B0000AA10EA001F0B8FC00BF3846BDE8F087C3
:1026C000FF2D03D0294610A001F0AEFC26EA080138
:1026D000484600F079F80020F0E7000052633532F8
:1026E0003257616974466C670000000046756E637E
:1026F0003A25732C4572723A307825782C537465DC
:10270000703A25642C0D0A00526335323220546928
:102710006D654F75743A25640D0A000010B50024EC
:102720000120FFF769FF00B901240120FEF79EF8A0
:10273000204610BDF8B507460E4600240020009044
:10274000002569460220FFF787F90446E4B100BF7F
:1027500080210A2000F038F800BF12222846691CA8
:10276000CDB22254601932463946FDF7FDFCA81956
:10277000C5B22A462146002000F0D4FDBDF8001065
:102780000220FFF70BF907E000BF00231A4603A160
:1027900006A001F049FC00BFF8BD000052633532CD
:1027A0003257726974654649464F000046756E633C
:1027B0003A25732C4572723A307825782C5374651B
:1027C000703A25642C0D0A00F8B504460D46002029
:1027D0000090002640EA4400C2B23146761C0DF853
:1027E00001203146761C0DF8015002226946002076
:1027F00000F098FDF8BD00002DE9FE4304460027D7
:10280000B846002001900290012500900326012186
:10281000FFF714FE0020FFF7D8FE601E2749085C72
:102820008DF8040020208DF805009DF8000020F0B0
:10283000F800103000909DF8000020F00700009094
:1028400000BF01A8009900F049FB074627B169467F
:1028500001A800F0E1F910B90027B84620E00DF119
:102860000600009900F078F80646012E0DD100BF51
:10287000601E00EB800112480844DDF8061001607C
:102880009DF80A10017100BF15E0032E01D0202D24
:1028900003DD4FF00108002702E0681CC5B2D0E755
:1028A00000BF4346002207A10BA001F0BDFB00BF03
:1028B0000020BDE8FE830120FBE700002800002087
:1028C0005FF20020533530416E7469436F6C6C4C7D
:1028D0006576656C6E00000046756E633A25732C54
:1028E0004572723A307825782C537465703A2564B5
:1028F0002C0D0A0070B500250024032600BF20E03F
:10290000611CC8B2FFF778FF054605B91CE0611CE1
:10291000C8B200F0C1FA06464EB1012E03D0032E14
:102920000DD1002510E0601CC4B2012508E000BFF5
:102930000749085D0749087000BF012506E000BF90
:1029400000BF032CDCDB00BF284670BD0120FCE784
:102950002B00002054F200202DE9F3410546032608
:102960009DF8040000F007079DF80400C408072C38
:1029700001DA02260BE0072C01DD032607E02FB960
:10298000284600F016F808B1012600E000BF3046E6
:10299000BDE8FC8110B5002402E0C820FDF766FF09
:1029A00000F0B4FA0028F8D0FFF7A4FF0446204650
:1029B00010BD10B50146002300220C7900BF03E0D2
:1029C000885C4340501CC2B2042AF9DBA34201D107
:1029D000012010BD0020FCE770B50446032504F07B
:1029E0000400042801D1012509E004F008000828AA
:1029F00001D1002503E0032502A001F015FB2846C4
:102A000070BD000050494343206973204E6F74200D
:102A1000533530210D0A000010B50024202105484F
:102A2000FDF7BBFB00BF062202491A312046FDF725
:102A300057FF10BD54F200200648A0F10B01B0F87A
:102A40000120A1F80120C278CA70D0F805204A60A0
:102A5000704700005FF200200348A0F10B010268FC
:102A6000C1F80120704700005FF200200848A0F183
:102A70000B01B0F80120A1F80120C278CA70C38808
:102A80008B80027A8A71D0F80A20C1F8072070473B
:102A90005FF2002010B50446012C04D0022C05D0B2
:102AA000032C09D105E0FFF7D7FF06E0FFF7C4FFCD
:102AB00003E0FFF7DBFF00E000BF00BF10BD000038
:102AC000F8B504460A4E002000900027002539463C
:102AD000684600F03DF86B46324621466020FFF71D
:102AE000C4FB054605B900E000BF2846F8BD00005C
:102AF0006EF200207FB505460E46002400200090AF
:102B00000190029003906946284600F045F804467B
:102B10001CB907A001F088FA07E03146684600F0CA
:102B200055F80446204604B070BD0020FBE70000C5
:102B300053353020426C6F636B20446174612052C6
:102B4000656376204572726F72210D0A00000000E5
:102B5000104B1A78042A03D1D3F80130036017E030
:102B6000072A15D121B1012906D002290ED108E08A
:102B7000084B1B6903600AE0064BD3F80B30036077
:102B800005E0044BD3F80130036000E000BF00BF54
:102B90007047000054F20020F8B504460D460027A7
:102BA00000200090002630223146761C0DF80120CE
:102BB0003146761C0DF8014002236A461021284652
:102BC00000F0FBF907463846F8BD000070B5044632
:102BD0000D462268A0686168824202D1CB438342DD
:102BE00000D003E020682860012070BD02A001F041
:102BF0001BFA0020F9E7000053353020426C6F6368
:102C00006B2044617461204368636B204572726F6E
:102C100072210D0A000000002DE9FF5F07460E46F5
:102C20004FF0000A3078C508307800F0070900201E
:102C30000290039001900090B9F1000F03D1E806D3
:102C40004FEA106A04E0681E09EBC00000F0FF0ABA
:102C500001A8FFF7C1FA00909DF80400504400F06D
:102C6000FF0ABAF1380F04DC009818B9BAF1380F2E
:102C700000D0AFE04FF000089DF804004844C4B213
:102C8000E11704EB5171C910A4EBC10151B9204601
:102C9000E11704EB5171C1F3C708414602A8FFF7E1
:102CA00039FB1DE02046E11704EB5171C910491CA6
:102CB00001F0FF08414602A8FFF72CFB2046E11770
:102CC00004EB5171C910A4EBC10201219140491ECE
:102CD000A8F1010202AB9A5C1140A8F101029954DB
:102CE0009DF804004844C4B22046E11704EB51713A
:102CF0004FEAE108E11704EB5171C910A4EBC101DF
:102D000001F0FF0BBBF1000F03D008F1010000F050
:102D1000FF08B9F1000F05D17819424602A9FDF765
:102D200023FA12E09DF80810012000FA09F0401E75
:102D30000840691E795C0843691E7854A8F10102B5
:102D400078190DF10901FDF70FFABAF1380F28D003
:102D5000601CC4B22046E11704EB51714FEAE10850
:102D6000E11704EB5171C910A4EBC10101F0FF0B95
:102D7000BBF1000F0AD105EB0800401E385C40F0A3
:102D8000800105EB0800401E39540AE005EB0800FD
:102D9000385CABF1010101228A40104305EB0801C8
:102DA000785430786BF30200307008EB050031780E
:102DB00060F3C7013170BBF1000F07D030780121FB
:102DC00001EBD000317860F3C7013170012004B00D
:102DD000BDE8F09F00BF0023FF2203A106A001F081
:102DE00023F900BF0020F2E75335305061636B4197
:102DF000634461746100000046756E633A25732C6C
:102E00004572723A307825782C537465703A25648F
:102E10002C0D0A0030B502460023501E0A4C255CDA
:102E20001C465B1C0D5570251C465B1C0D5500BFD8
:102E3000CC1800EB8005054828440568256000791A
:102E4000207100BF072030BD280000205FF2002065
:102E500038B500200090382469460120FFF74AFE6B
:102E600069460120FFF746FE0098A04202D102A069
:102E700001F0DAF838BD0000533530205265616446
:102E80002F5772697465205465737420537563639A
:102E9000657373210D0A0000FEB505460020019000
:102EA000029000900026032401A92846FFF7B2FFF4
:102EB000072301AA0121684600F07FF806460EB9F3
:102EC00000BF09E09DF80000FFF786FD044614B935
:102ED0002846FFF7DFFD00BF2046FEBD73B5044660
:102EE00000259DF80400C1082046FFF723FC9DF84B
:102EF000042002F0070102F00700FFF731FBFFF7A3
:102F00000DFC0546FFF74EFB28467CBD38B500207A
:102F10000090002402226946262000F029F8044689
:102F20007CB19DF80000084901EB9010007807493A
:102F300008700220FDF7ECF90448017804A001F0C4
:102F400073F8204638BD00002B00002054F200200A
:102F50005335302043617264204465746563746541
:102F600064215549442053697A653A25640D0A0065
:102F7000F7B50C461546002601210020FFF75EFA42
:102F80000020FFF722FB01216846FFF7D3FB072152
:102F90000020FFF7E5FAFFF7C1FB0646FFF702FB4B
:102FA00046B1FFF759F928B929462046FFF7B2F98B
:102FB000064600E000263046FEBD2DE9F0410746FA
:102FC000884614461D46002601210846FFF736FABA
:102FD0000120FFF7FAFA29462046FFF77BF8294639
:102FE0002046FFF7A7FB00210846FFF7B9FAFFF7D5
:102FF00095FB0646FFF7D6FA16B1FFF72DF908B193
:10300000002605E041463846FFF784F9064600BF32
:103010003046BDE8F081002400F012F800BF0A201D
:10302000FDF724FCFFF7B6FC044604B9F7E70120DE
:10303000FFF746FD044604B9F1E7FFF709FFEEE7A5
:1030400010B5FF2206210248FDF7A0F810BD0000D0
:103050006EF2002010B50748D0F8C40020B1054931
:10306000D1F8C400804703E003A107A000F0DCFF13
:1030700010BD000064F100205344494F5F49525194
:1030800048616E646C65720049727120257320433B
:103090006F6E66696720457272210D0A000000009C
:1030A00010B50748D0F88C0020B10549D1F88C0044
:1030B000804703E003A107A000F0B6FF10BD0000A9
:1030C00064F10020535049315F49525148616E64A8
:1030D0006C65720049727120257320436F6E6669BA
:1030E0006720457272210D0A0000000010B50748E4
:1030F000D0F8900020B10549D1F89000804703E056
:1031000003A107A000F090FF10BD000064F10020B3
:10311000535049325F49525148616E646C65720088
:1031200049727120257320436F6E6669672045726E
:1031300072210D0A0000000010B50748D0F8CC003D
:1031400020B10549D1F8CC00804703E003A107A0D6
:1031500000F06AFF10BD000064F1002053504933B5
:103160005F49525148616E646C657200497271200A
:10317000257320436F6E66696720457272210D0AC0
:103180000000000021B1028842F04002028004E009
:1031900002884FF6BF731A40028070470246002033
:1031A00013890B400BB1012000E00020704710B5DF
:1031B0000022028802F441520B884C8823438C88F9
:1031C0002343CC8823430C8923434C8923438C8994
:1031D0002343CC8923431A430280838B4FF2FF742D
:1031E000234083830B8A038210BD21B1828842F081
:1031F0000402828004E082884FF6FB731A408280CA
:103200007047704710B500F001F810BD0CB50020F4
:10321000019000903348006840F4803031490860E4
:1032200000BF3048006800F4003000900198401C56
:103230000190009818B90198B0F5A06FF1D1294814
:10324000006800F4003010B10120009001E000207F
:1032500000900098012843D12348006840F01000F6
:10326000214908600846006820F00300086008460D
:10327000006840F0020008601A4840681949486038
:103280000846406848600846406840F480604860EE
:103290000846406820F47C1048600846406840F4C6
:1032A000E81048600846006840F08070086000BF81
:1032B0000C48006800F000700028F9D00948406808
:1032C00020F00300074948600846406840F00200CB
:1032D000486000BF0348406800F00C000828F9D19E
:1032E0000CBD000000100240002002402DE9F84310
:1032F00004460D4616461F46DDF82080084850F863
:10330000240058B10648CDF8008050F824C03B4650
:10331000324629462046E047BDE8F8830020FBE717
:10332000340000202DE9F84304460F46904600265D
:103330000025A946002000903E4951F824000121B3
:10334000FFF720FF00BF00BF0022C4EB04103A4982
:1033500001EB8000806A0C3000F0704000F10070DA
:10336000C4EB0411344B03EB8101896A0C31C1F3C6
:10337000130100EB4111C4EB041003EB800090F843
:103380002C0041F8202000BF00BF00BF0DE0B95D58
:10339000284A52F824006A4600F000F9054615B1A3
:1033A0004FF0000939E0701C86B24645EFDB00BFE4
:1033B000204951F824008021FFF7F0FE0128F7D0C2
:1033C0001C4951F824000021FFF7DCFE1420FDF712
:1033D0005FFA00BF00BF0122C4EB0410164901EBE5
:1033E0008000806A0C3000F0704000F10070C4EB87
:1033F0000411114B03EB8101896A0C31C1F31301F4
:1034000000EB4111C4EB041003EB800090F82C009A
:1034100041F8202000BF00BF00BF3DB100BF4B46B8
:103420002A4606A109A000F0FFFD00BF2846BDE81E
:10343000F8830000AC450008F84400085370694464
:1034400061746157726974650000000046756E63AF
:103450003A25732C4572723A307825782C5374656E
:10346000703A25642C0D0A002DE9F84104462546E2
:1034700004F10C0704F1180804F12406A868B968DF
:103480000843D8F808100843B168084322498969FD
:1034900008432149886103208DF8010018208DF828
:1034A000020098F804008DF800006946D8F8000082
:1034B000FDF759FC28798DF8000069462868FDF76A
:1034C00052FC10208DF8020030798DF8000069461A
:1034D0003068FDF748FC00BF012230680C3000F076
:1034E000704000F1007031680C31C1F3130100EB42
:1034F0004110317940F8212000BF00208DF80100F3
:1035000004208DF8020038798DF80000694638688B
:10351000FDF729FCBDE8F881001002402DE9F041DB
:1035200004462678C6EB0610104901EB80053046AC
:10353000696B00F01FF805F10408AF6B0FB1B847D5
:1035400002E04046FFF790FF2F68D4F80480414620
:103550003846FFF72CFE00213846FFF746FE0449A7
:10356000A06841F82600BDE8F0810000F84400089A
:1035700034000020084A926942F00102064B9A6129
:1035800020B91A4692690A439A6104E0024AD26954
:103590000A43014BDA617047001002402DE9F04107
:1035A00005460F4616460024A0460121284600F095
:1035B00033F804460CB100BF0EE0AF81002128466D
:1035C00000F02AF8044614B14FF0000804E0A8897E
:1035D00030700020BDE8F08100BF4346224603A1C1
:1035E00006A000F021FD00BF2046F3E753706957A5
:1035F00072697465427974650000000046756E63F7
:103600003A25732C4572723A307825782C537465BC
:10361000703A25642C0D0A002DE9F05F07468846B4
:10362000B8F1000F01D1012000E000208246BAF17C
:10363000000F01D0012000E0022083460024002575
:10364000A14664260AE03D89701EC6B205F07804E2
:1036500014B14FF0000907E005EA0B050DB9002E83
:10366000F1D106B9FF2400BF3CB100BF4B46224652
:1036700003A107A000F0D8FC00BF2046BDE8F09FE2
:1036800053706957616974416374456E640000004A
:1036900046756E633A25732C4572723A30782578F8
:1036A0002C537465703A25642C0D0A007047000095
:1036B00010B51348006840F0010011490860084641
:1036C0004068104908400E494860084600680E49A5
:1036D00008400B4908600846006820F48020086014
:1036E0000846406820F4FE0048604FF41F008860E0
:1036F000FFF788FD4FF000600449086010BD00002E
:10370000001002400000FFF8FFFFF6FE08ED00E0A9
:1037100010B50648806818B104498868804703E0FE
:1037200003A108A000F080FC10BD000064F100209F
:1037300054414D5045525F49525148616E646C6529
:103740007200000049727120257320436F6E666914
:103750006720457272210D0A0000000010B506486E
:10376000006E18B10449086E804703E003A108A069
:1037700000F05AFC10BD000064F1002054494D31A6
:103780005F42524B5F49525148616E646C657200F2
:1037900049727120257320436F6E666967204572F8
:1037A00072210D0A0000000010B50648C06E18B165
:1037B0000449C86E804703E003A108A000F034FC70
:1037C00010BD000064F1002054494D315F43435F58
:1037D00049525148616E646C6572000049727120F3
:1037E000257320436F6E66696720457272210D0A4A
:1037F0000000000010B50648806E18B10449886EBC
:10380000804703E003A109A000F00EFC10BD0000FA
:1038100064F1002054494D315F5452475F434F4D8E
:103820005F49525148616E646C6572004972712043
:10383000257320436F6E66696720457272210D0AF9
:103840000000000010B50648406E18B10449486EEB
:10385000804703E003A108A000F0E6FB10BD0000D4
:1038600064F1002054494D315F55505F4952514831
:10387000616E646C6572000049727120257320438B
:103880006F6E66696720457272210D0A00000000A4
:1038900010B50648006F18B10449086F804703E06F
:1038A00003A107A000F0C0FB10BD000064F10020E0
:1038B00054494D325F49525148616E646C657200E3
:1038C00049727120257320436F6E666967204572C7
:1038D00072210D0A0000000010B50648406F18B1B3
:1038E0000449486F804703E003A107A000F09CFB58
:1038F00010BD000064F1002054494D335F4952511E
:1039000048616E646C6572004972712025732043B2
:103910006F6E66696720457272210D0A0000000013
:1039200010B50648806F18B10449886F804703E0DE
:1039300003A107A000F078FB10BD000064F1002097
:1039400054494D345F49525148616E646C65720050
:1039500049727120257320436F6E66696720457236
:1039600072210D0A0000000010B50748D0F8C80009
:1039700020B10549D1F8C800804703E003A107A0A2
:1039800000F052FB10BD000064F1002054494D3599
:103990005F49525148616E646C65720049727120D2
:1039A000257320436F6E66696720457272210D0A88
:1039B0000000000010B50748D0F8D80020B1054934
:1039C000D1F8D800804703E003A107A000F02CFB4A
:1039D00010BD000064F1002054494D365F4952513A
:1039E00048616E646C6572004972712025732043D2
:1039F0006F6E66696720457272210D0A0000000033
:103A000010B50748D0F8DC0020B10549D1F8DC003A
:103A1000804703E003A107A000F006FB10BD0000F3
:103A200064F1002054494D375F49525148616E643A
:103A30006C65720049727120257320436F6E666950
:103A40006720457272210D0A0000000010B507487A
:103A5000D0F8AC0020B10549D1F8AC00804703E0B4
:103A600003A108A000F0E0FA10BD000064F10020FE
:103A700054494D385F42524B5F49525148616E6420
:103A80006C65720049727120257320436F6E666900
:103A90006720457272210D0A0000000010B507482A
:103AA000D0F8B80020B10549D1F8B800804703E04C
:103AB00003A108A000F0B8FA10BD000064F10020D6
:103AC00054494D385F43435F49525148616E646CBD
:103AD0006572000049727120257320436F6E66691C
:103AE0006720457272210D0A0000000010B50748DA
:103AF000D0F8B40020B10549D1F8B400804703E004
:103B000003A109A000F090FA10BD000064F10020AC
:103B100054494D385F5452475F434F4D5F495251AE
:103B200048616E646C657200497271202573204390
:103B30006F6E66696720457272210D0A00000000F1
:103B400010B50748D0F8B00020B10549D1F8B00051
:103B5000804703E003A108A000F066FA10BD000052
:103B600064F1002054494D385F55505F4952514827
:103B7000616E646C65720000497271202573204388
:103B80006F6E66696720457272210D0A00000000A1
:103B900010B50748D0F8D00020B10549D1F8D000C1
:103BA000804703E003A108A000F03EFA10BD00002A
:103BB00064F1002055415254345F49525148616EBE
:103BC000646C657200000000497271202573204307
:103BD0006F6E66696720457272210D0A0000000051
:103BE00010B50748D0F8D40020B10549D1F8D40069
:103BF000804703E003A108A000F016FA10BD000002
:103C000064F1002055415254355F49525148616E6C
:103C1000646C6572000000004972712025732043B6
:103C20006F6E66696720457272210D0A0000000000
:103C300010B50748D0F8940020B10549D1F8940098
:103C4000804703E003A108A000F0EEF910BD0000DA
:103C500064F100205553415254315F49525148613B
:103C60006E646C65720000004972712025732043F8
:103C70006F6E66696720457272210D0A00000000B0
:103C800010B50748D0F8980020B10549D1F8980040
:103C9000804703E003A108A000F0C6F910BD0000B2
:103CA00064F100205553415254325F4952514861EA
:103CB0006E646C65720000004972712025732043A8
:103CC0006F6E66696720457272210D0A0000000060
:103CD00010B50748D0F89C0020B10549D1F89C00E8
:103CE000804703E003A108A000F09EF910BD00008A
:103CF00064F100205553415254335F495251486199
:103D00006E646C6572000000497271202573204357
:103D10006F6E66696720457272210D0A000000000F
:103D200021B1828942F40052828104E082894DF6F9
:103D3000FF731A408281704702460020B1F5007F70
:103D400000D100BF13880B400BB1012000E0002020
:103D5000704700002DE9F04785B005460E46002467
:103D6000A24600BFA1460027B08900B100BF2F4680
:103D70002C8A4CF6FF700440F08804432C82AC89F6
:103D80004EF6F3100440B088318908437189084326
:103D90000443AC81AC8A4FF6FF400440B089044331
:103DA000AC826846FEF770F81F48874202D1DDF802
:103DB0000CA001E0DDF808A0A88900F4004040B1A3
:103DC0000AEBCA0000EB0A1031684900B0FBF1F8B9
:103DD00007E00AEBCA0000EB0A1031688900B0FB6B
:103DE000F1F86420B8FBF0F004012009642101FB24
:103DF0001089A88900F4004040B1322000EBC900CE
:103E0000B0FBF1F000F00700044308E0322000EBC3
:103E100009106421B0FBF1F000F00F0004432C8185
:103E200005B0BDE8F087000000380140C1F308028A
:103E30008280704710B50748D0F8A80020B1054926
:103E4000D1F8A800804703E003A109A000F0ECF836
:103E500010BD000064F1002055534257616B655559
:103E6000705F49525148616E646C657200000000D9
:103E700049727120257320436F6E66696720457211
:103E800072210D0A0000000010B50648C06C18B180
:103E90000449C86C804703E003A10AA000F0C4F8FD
:103EA00010BD000064F100205553425F48505F434D
:103EB000414E315F54585F49525148616E646C65A0
:103EC0007200000049727120257320436F6E66698D
:103ED0006720457272210D0A0000000010B50648E7
:103EE000006D18B10449086D804703E003A10AA0E2
:103EF00000F09AF810BD000064F100205553425FB5
:103F00004C505F43414E315F5258305F49525148E7
:103F1000616E646C657200004972712025732043E4
:103F20006F6E66696720457272210D0A00000000FD
:103F300000B585B00020049000900190029003909D
:103F4000012144F20500FDF78FFF18208DF81300C2
:103F50004FF40070ADF8100003208DF8120004A992
:103F60001448FCF775FE04208DF813000002ADF82C
:103F7000100003208DF8120004A90E48FCF768FE1B
:103F800001210D48FFF7CCFE4FF4E13000900020F6
:103F9000ADF80400ADF80600ADF808000C20ADF84F
:103FA0000A000020ADF80C0069460348FFF7D2FE76
:103FB00005B000BD000801400038014070B504465E
:103FC0000D4629462046FFF731FF00BF80212046DD
:103FD000FFF7B2FE0028F9D070BD00BFFEE7000079
:103FE00010B50648006818B104490868804703E026
:103FF00003A107A000F018F810BD000064F1002034
:10400000575744475F49525148616E646C6572006E
:1040100049727120257320436F6E6669672045726F
:1040200072210D0A000000000FB4054B10B503A962
:10403000044A029800F018F810BC5DF814FB000068
:10404000CD4400083000002002E008C8121F08C15B
:10405000002AFAD170477047002001E001C1121F09
:10406000002AFBD1704700002DE9FF4F8DB00F46AD
:104070000546002606E025280BD0DDE90F12904703
:104080006D1C761C28780028F5D111B03046BDE8AB
:10409000F08F0024A246A1460122EC4900E004432F
:1040A00015F8013F203B02FA03F00842F7D12878C7
:1040B0002A2810D06FF02F022878A0F130010929AA
:1040C00014D80AEB8A0102EB410144F0020400EB30
:1040D000010A6D1CF0E701CF5FEA000A03D544F442
:1040E0000054CAF1000A44F002046D1C28782E28FE
:1040F00017D115F8010F44F004042A280ED06FF0F0
:104100002F022878A0F1300109290AD809EB89018A
:1041100002EB410100EB01096D1CF2E757F8049B2B
:104120006D1C28786C280FD006DC4C2817D0682826
:104130000DD06A2814D104E0742810D07A280FD149
:104140000DE044F400140AE044F4801401E044F467
:1041500040146978814202D104F580146D1C6D1CF5
:104160002A786E2A1FD00CDC632A31D004DC002AA6
:104170008BD0582A11D1A3E0642A68D0692A0CD1C7
:1041800065E0732A2ED004DC6F2A73D0702A04D124
:104190009BE0752A6FD0782A6ED01046DDE90F12A9
:1041A0009047761C50E1C4F30250022806D0032841
:1041B00009D0042801CF09D0066045E101CFF117ED
:1041C000C0E9006140E101CF06803DE106703BE1BE
:1041D00017F8040B8DF8000000208DF80100EB4665
:1041E000012003E057F804BB4FF0FF3061074FF0A8
:1041F000000102D40DE008F10101884649450FDABB
:104200008045F8DB1BF808100029F4D108E008F11C
:10421000010188468142FADB1BF808100029F6D11B
:10422000DDE90F23AAEB08008146214600F036F9AC
:10423000304400EB080604E0DDE90F121BF8010B27
:104240009047B8F10108F7D221464846F7E00A2125
:10425000C4F302534FF0000B0891022B04D001CF9E
:10426000C117032B09D00AE0FF1D27F00707F7E865
:10427000020108E032E01FE020E000B2C117042B89
:1042800001D140B2C117031E71F1000307DA4FF0EC
:10429000000CD0EB0C006CEB01012D2302E0230598
:1042A00004D52B238DF82430012303E0E30701D04C
:1042B0002023F7E7984658E00A2110E010210EE08D
:1042C00010204FF0000B08900CE010214FF0000B75
:1042D00044F004044FF00809089103E008214FF06E
:1042E000000B0891C4F30253022B04D001CF00212C
:1042F000032B06D006E0FF1D27F00707F7E80201B1
:1043000003E080B2042B00D1C0B24FF000082307B5
:104310002BD5702A07D0DDF820C08CF0100C5CEA99
:104320000B0C05D00EE040238DF82430012308E06B
:1043300050EA010306D030238DF824308DF8252073
:1043400002239846DDF820C08CF0080C5CEA0B0CC8
:104350000BD150EA010301D1630706D530238DF854
:1043600024304FF00108A9F10109582A04D038A2DD
:104370000B9208AA0A920BE03AA2F9E75B46089A68
:10438000FBF716FF0B9B9B5C0A9A521E0A92137056
:1043900050EA0102F2D10A98ADEB000000F1200BC7
:1043A000600702D524F4803401E04FF00109D945BB
:1043B00002DDA9EB0B0000E0002000EB0B01414403
:1043C0000890AAEB010AE00306D4DDE90F23214699
:1043D000504600F063F806444FF0000908E009A9D0
:1043E00011F80900DDE90F12904709F10109761C67
:1043F000C145F4DBE0030CD5DDE90F23214650462F
:1044000000F04CF8064404E0DDE90F12302090473C
:10441000761C0899481E08900029F5DC08E00A98E7
:104420000A990078491C0A91DDE90F129047761C21
:10443000BBF10001ABF1010BF1DC21465046DDE997
:104440000F2300F019F806446D1C1BE60928010033
:1044500030313233343536373839616263646566FA
:1044600000000000303132333435363738394142BC
:1044700043444546000000002DE9F0410446002574
:104480001E461746880404D405E039462020B0476C
:104490006D1C641EF9D52846BDE8F0812DE9F04178
:1044A000044600251E469046C80301D5302700E08B
:1044B0002027880404D505E041463846B0476D1CE6
:1044C000641EF9D52846BDE8F081000070B50446A9
:1044D0000D46E1B20248FFF771FD204670BD0000B5
:1044E00000380140FCF7EDF9FBF766FFFDF73EFBF6
:1044F000FEF791FD00BFFEE70030014000080140DB
:104500000700000004000000000801400600000051
:104510000400000000080140050000000400000045
:10452000000801400300000004000000001000002B
:104530000000000000380040000C01400F000000A7
:1045400008000000000C01400E0000000800000000
:10455000000C01400D00000008000000000C0140AC
:104560000700000000010000004000000000000003
:10457000003C0040000C0140050000000800000065
:10458000000C01400400000008000000000C014085
:104590000300000008000000000C01400C000000B7
:1045A0000800000000800000000000000030014012
:1045B00000380040003C00400010014000000000B6
:1045C0001000000000100140010000001000000079
:1045D000000C01400A00000008000000000C01402F
:1045E0000B00000008000000400000200300000055
:1045F0004C0000200A00000074000020140000009D
:10460000C400002028000000060000000000000098
:104610000500000005000000000101020103000484
:1046200001070008010C000E000F01004C460008B5
:1046300000000020340000004840000880460008C8
:104640003400002044F600005840000800A24A044C
:104650000000000000000000010203040607080932
:104660000000000001020304010203040607080918
:104670000204060893959704070A00000000000052
:0400000508000131BD
:00000001FF
